:0300000002035B9D
:0C035B00787FE4F6D8FD75810902034E9E
:100174008883C6A1868EC289F0F18CC7C8ABA38CD4
:1001840098CEB687C1E3819B91A592C688C788CED5
:10019400FF8188E38692FF8CCEA38C88C28887F087
:1001A400ABC2FFF0ABFF878986FFA1F0CE86C6877E
:1001B400F0A3ABFFA38EFF878986FFC888C2AB86F6
:1001C40087F0C6FF8EF086C7A1FFE386C687A3CE5D
:1001D400FF88CE86FFC6C78688CEC791FFA1CEF022
:1001E400E386ABFF8391FFC888C2AB8687F0C6FF66
:1001F4008EF086C7A1927F88ABA1FF88CE86FF8E42
:10020400A3CEC886A17FFF8EA3CEFF869B88C88C11
:10021400C786FF8391FFCEA3878887F0ABC2FF8692
:10022400C786C687CEF0C688C7FFC68988CEC28671
:10023400927FFF92C1C689FF8EF086C7A1FFE3A318
:10024400CE87869B8692FFC8C19287FF8386FF92E2
:100254008688CEC68986A1FF8EA3CE7F8892FF9220
:10026400C1C689FF88FFC8A387A3CEFF81A3C1C7E6
:10027400A1FF8386FFC6888C8883C786FF87A3FF78
:10028400A1CEF0E386FF878986FF83F0A3C7A3C2CC
:10029400F0C688C7FF8CCEA3C68692928692FF884A
:1002A400ABA1FFC68986C8F0C688C7FFCE8688C6BC
:0602B40087F0A3AB92FFEE
:10032900EF1FAC0670011E4C70F6EF1FAC06700192
:050339001E4C70F622CD
:0C031200FDEA34FFFC1202ED7FE77E03E1
:0B031E00EF1FAC0670011E4C70F622B1
:1002BA00EF24FB601314601914601F24037023E5F4
:1002CA00A0541F4480F5A022E5A0541F44A0F5A025
:1002DA0022E5A0541F44C0F5A022E5A0541F44E023
:0302EA00F5A0225A
:10033E007F041202BA7580FF0F1202BAE4F5802212
:1002ED00AE077F071202BA7580FF1F1202BAAF0563
:1002FD00A8077401088002C333D8FCF5807F07126C
:05030D0002BA8E8022FF
:100003007960E4F508F509AF0119EF602FE4FAFB15
:10001300C3EB9408EA940050EEE5092BFFE5083A98
:10002300FE748E2FF58274013EF583E493FFAD03D6
:10003300AC021203170BBB00010A80D479600509D7
:10004300E50970020508C39425E50864809481409E
:10005300B6750800750908AF0119EF602AE4FAFBC9
:10006300C3EB9405EA940050EE74742BF58274018B
:100073003AF583E493FFE5092BFDE5083A120316ED
:100083000BBB00010A80D97960E5091509700215D7
:1000930008C3E5086480948050BDAF0119EF602761
:1000A3007A007B01C3EB9405EA940050ED74742B42
:1000B300F58274013AF583E493FFEB24FF120312F4
:1000C3000BBB00010A80DD7960AF0119EF60277A6D
:1000D300007B02C3EB9405EA940050ED74742BF596
:1000E3008274013AF583E493FFEB24FE1203120BAF
:1000F300BB00010A80DDAF0119EF60277A007B03A3
:10010300C3EB9405EA940050ED74742BF5827401EB
:100113003AF583E493FFEB24FD1203120BBB0001BA
:100123000A80DD7960AF0119EF60277A007B04C391
:10013300EB9405EA940050ED74742BF58274013A44
:10014300F583E493FFEB24FC1203120BBB00010ABB
:1001530080DD7F607EEA120329E4FAFBAD03AC0283
:100163007FFF1203170BBB00010AEB64084A70EC14
:010173002269
:0D034E0012033E7F307E751203290200036A
:00000001FF
